{
  "address": "0xFDf0dC8A74ea2F1261A3bE20ACc0Ee58b4F363e8",
  "abi": [
    {
      "anonymous": false,
      "inputs": [
        {
          "indexed": true,
          "internalType": "address",
          "name": "account",
          "type": "address"
        },
        {
          "indexed": true,
          "internalType": "address",
          "name": "operator",
          "type": "address"
        },
        {
          "indexed": false,
          "internalType": "bool",
          "name": "approved",
          "type": "bool"
        }
      ],
      "name": "ApprovalForAll",
      "type": "event"
    },
    {
      "anonymous": false,
      "inputs": [
        {
          "indexed": false,
          "internalType": "uint256",
          "name": "number",
          "type": "uint256"
        }
      ],
      "name": "Birth",
      "type": "event"
    },
    {
      "anonymous": false,
      "inputs": [
        {
          "indexed": false,
          "internalType": "uint256",
          "name": "round",
          "type": "uint256"
        },
        {
          "indexed": false,
          "internalType": "uint256",
          "name": "number",
          "type": "uint256"
        }
      ],
      "name": "Result",
      "type": "event"
    },
    {
      "anonymous": false,
      "inputs": [
        {
          "indexed": true,
          "internalType": "address",
          "name": "operator",
          "type": "address"
        },
        {
          "indexed": true,
          "internalType": "address",
          "name": "from",
          "type": "address"
        },
        {
          "indexed": true,
          "internalType": "address",
          "name": "to",
          "type": "address"
        },
        {
          "indexed": false,
          "internalType": "uint256[]",
          "name": "ids",
          "type": "uint256[]"
        },
        {
          "indexed": false,
          "internalType": "uint256[]",
          "name": "values",
          "type": "uint256[]"
        }
      ],
      "name": "TransferBatch",
      "type": "event"
    },
    {
      "anonymous": false,
      "inputs": [
        {
          "indexed": true,
          "internalType": "address",
          "name": "operator",
          "type": "address"
        },
        {
          "indexed": true,
          "internalType": "address",
          "name": "from",
          "type": "address"
        },
        {
          "indexed": true,
          "internalType": "address",
          "name": "to",
          "type": "address"
        },
        {
          "indexed": false,
          "internalType": "uint256",
          "name": "id",
          "type": "uint256"
        },
        {
          "indexed": false,
          "internalType": "uint256",
          "name": "value",
          "type": "uint256"
        }
      ],
      "name": "TransferSingle",
      "type": "event"
    },
    {
      "anonymous": false,
      "inputs": [
        {
          "indexed": false,
          "internalType": "string",
          "name": "value",
          "type": "string"
        },
        {
          "indexed": true,
          "internalType": "uint256",
          "name": "id",
          "type": "uint256"
        }
      ],
      "name": "URI",
      "type": "event"
    },
    {
      "inputs": [],
      "name": "AVG_BLOCK_TIME",
      "outputs": [
        {
          "internalType": "uint256",
          "name": "",
          "type": "uint256"
        }
      ],
      "stateMutability": "view",
      "type": "function"
    },
    {
      "inputs": [],
      "name": "BLOCK_INTERVAL",
      "outputs": [
        {
          "internalType": "uint256",
          "name": "",
          "type": "uint256"
        }
      ],
      "stateMutability": "view",
      "type": "function"
    },
    {
      "inputs": [],
      "name": "EXPECTED_INTERVAL",
      "outputs": [
        {
          "internalType": "uint256",
          "name": "",
          "type": "uint256"
        }
      ],
      "stateMutability": "view",
      "type": "function"
    },
    {
      "inputs": [
        {
          "internalType": "address",
          "name": "account",
          "type": "address"
        },
        {
          "internalType": "uint256",
          "name": "id",
          "type": "uint256"
        }
      ],
      "name": "balanceOf",
      "outputs": [
        {
          "internalType": "uint256",
          "name": "",
          "type": "uint256"
        }
      ],
      "stateMutability": "view",
      "type": "function"
    },
    {
      "inputs": [
        {
          "internalType": "address[]",
          "name": "accounts",
          "type": "address[]"
        },
        {
          "internalType": "uint256[]",
          "name": "ids",
          "type": "uint256[]"
        }
      ],
      "name": "balanceOfBatch",
      "outputs": [
        {
          "internalType": "uint256[]",
          "name": "",
          "type": "uint256[]"
        }
      ],
      "stateMutability": "view",
      "type": "function"
    },
    {
      "inputs": [
        {
          "internalType": "uint8",
          "name": "number",
          "type": "uint8"
        }
      ],
      "name": "bet",
      "outputs": [],
      "stateMutability": "payable",
      "type": "function"
    },
    {
      "inputs": [],
      "name": "endGame",
      "outputs": [],
      "stateMutability": "nonpayable",
      "type": "function"
    },
    {
      "inputs": [
        {
          "internalType": "address",
          "name": "account",
          "type": "address"
        },
        {
          "internalType": "address",
          "name": "operator",
          "type": "address"
        }
      ],
      "name": "isApprovedForAll",
      "outputs": [
        {
          "internalType": "bool",
          "name": "",
          "type": "bool"
        }
      ],
      "stateMutability": "view",
      "type": "function"
    },
    {
      "inputs": [
        {
          "internalType": "uint256",
          "name": "",
          "type": "uint256"
        }
      ],
      "name": "luckyNumbers",
      "outputs": [
        {
          "internalType": "uint256",
          "name": "",
          "type": "uint256"
        }
      ],
      "stateMutability": "view",
      "type": "function"
    },
    {
      "inputs": [],
      "name": "redeem",
      "outputs": [],
      "stateMutability": "nonpayable",
      "type": "function"
    },
    {
      "inputs": [
        {
          "internalType": "uint256",
          "name": "",
          "type": "uint256"
        }
      ],
      "name": "redeemList",
      "outputs": [
        {
          "internalType": "address",
          "name": "player",
          "type": "address"
        },
        {
          "internalType": "uint8",
          "name": "number",
          "type": "uint8"
        },
        {
          "internalType": "uint256",
          "name": "amount",
          "type": "uint256"
        },
        {
          "internalType": "uint256",
          "name": "wonShare",
          "type": "uint256"
        }
      ],
      "stateMutability": "view",
      "type": "function"
    },
    {
      "inputs": [
        {
          "internalType": "uint8",
          "name": "number",
          "type": "uint8"
        }
      ],
      "name": "repeat",
      "outputs": [
        {
          "internalType": "uint8",
          "name": "",
          "type": "uint8"
        }
      ],
      "stateMutability": "pure",
      "type": "function"
    },
    {
      "inputs": [
        {
          "internalType": "uint256",
          "name": "number",
          "type": "uint256"
        }
      ],
      "name": "repeat2",
      "outputs": [
        {
          "internalType": "uint256",
          "name": "",
          "type": "uint256"
        }
      ],
      "stateMutability": "pure",
      "type": "function"
    },
    {
      "inputs": [
        {
          "internalType": "uint256",
          "name": "number",
          "type": "uint256"
        }
      ],
      "name": "repeatBiz",
      "outputs": [
        {
          "internalType": "uint256",
          "name": "",
          "type": "uint256"
        }
      ],
      "stateMutability": "nonpayable",
      "type": "function"
    },
    {
      "inputs": [],
      "name": "repeatP",
      "outputs": [
        {
          "internalType": "uint256",
          "name": "",
          "type": "uint256"
        }
      ],
      "stateMutability": "payable",
      "type": "function"
    },
    {
      "inputs": [
        {
          "internalType": "address",
          "name": "from",
          "type": "address"
        },
        {
          "internalType": "address",
          "name": "to",
          "type": "address"
        },
        {
          "internalType": "uint256[]",
          "name": "ids",
          "type": "uint256[]"
        },
        {
          "internalType": "uint256[]",
          "name": "amounts",
          "type": "uint256[]"
        },
        {
          "internalType": "bytes",
          "name": "data",
          "type": "bytes"
        }
      ],
      "name": "safeBatchTransferFrom",
      "outputs": [],
      "stateMutability": "nonpayable",
      "type": "function"
    },
    {
      "inputs": [
        {
          "internalType": "address",
          "name": "from",
          "type": "address"
        },
        {
          "internalType": "address",
          "name": "to",
          "type": "address"
        },
        {
          "internalType": "uint256",
          "name": "id",
          "type": "uint256"
        },
        {
          "internalType": "uint256",
          "name": "amount",
          "type": "uint256"
        },
        {
          "internalType": "bytes",
          "name": "data",
          "type": "bytes"
        }
      ],
      "name": "safeTransferFrom",
      "outputs": [],
      "stateMutability": "nonpayable",
      "type": "function"
    },
    {
      "inputs": [
        {
          "internalType": "address",
          "name": "operator",
          "type": "address"
        },
        {
          "internalType": "bool",
          "name": "approved",
          "type": "bool"
        }
      ],
      "name": "setApprovalForAll",
      "outputs": [],
      "stateMutability": "nonpayable",
      "type": "function"
    },
    {
      "inputs": [],
      "name": "start",
      "outputs": [
        {
          "internalType": "uint256",
          "name": "",
          "type": "uint256"
        }
      ],
      "stateMutability": "view",
      "type": "function"
    },
    {
      "inputs": [
        {
          "internalType": "uint256",
          "name": "",
          "type": "uint256"
        }
      ],
      "name": "sumsByNumber",
      "outputs": [
        {
          "internalType": "uint256",
          "name": "",
          "type": "uint256"
        }
      ],
      "stateMutability": "view",
      "type": "function"
    },
    {
      "inputs": [
        {
          "internalType": "bytes4",
          "name": "interfaceId",
          "type": "bytes4"
        }
      ],
      "name": "supportsInterface",
      "outputs": [
        {
          "internalType": "bool",
          "name": "",
          "type": "bool"
        }
      ],
      "stateMutability": "view",
      "type": "function"
    },
    {
      "inputs": [
        {
          "internalType": "uint256",
          "name": "",
          "type": "uint256"
        }
      ],
      "name": "tickets",
      "outputs": [
        {
          "internalType": "address",
          "name": "player",
          "type": "address"
        },
        {
          "internalType": "uint8",
          "name": "number",
          "type": "uint8"
        },
        {
          "internalType": "uint256",
          "name": "amount",
          "type": "uint256"
        },
        {
          "internalType": "uint256",
          "name": "wonShare",
          "type": "uint256"
        }
      ],
      "stateMutability": "view",
      "type": "function"
    },
    {
      "inputs": [
        {
          "internalType": "uint256",
          "name": "",
          "type": "uint256"
        }
      ],
      "name": "uri",
      "outputs": [
        {
          "internalType": "string",
          "name": "",
          "type": "string"
        }
      ],
      "stateMutability": "view",
      "type": "function"
    }
  ],
  "transactionHash": "0xcf0758d9a4cf72de66fe7c31cf12497f7c26c8e6562c3b872002542545354a21",
  "args": [],
  "solcInputHash": "a9f0fbb67ba7d148f8135e21e5cf8f8f",
  "bytecode": "0x608060405260006003553480156200001657600080fd5b5060405180606001604052806029815260200162003aba6029913962000042816200004960201b60201c565b506200017a565b80600290805190602001906200006192919062000065565b5050565b828054620000739062000115565b90600052602060002090601f016020900481019282620000975760008555620000e3565b82601f10620000b257805160ff1916838001178555620000e3565b82800160010185558215620000e3579182015b82811115620000e2578251825591602001919060010190620000c5565b5b509050620000f29190620000f6565b5090565b5b8082111562000111576000816000905550600101620000f7565b5090565b600060028204905060018216806200012e57607f821691505b602082108114156200014557620001446200014b565b5b50919050565b7f4e487b7100000000000000000000000000000000000000000000000000000000600052602260045260246000fd5b613930806200018a6000396000f3fe60806040526004361061013f5760003560e01c8063766e4ed6116100b6578063d0821b0e1161006f578063d0821b0e1461048e578063dd0e3056146104aa578063e780faa3146104d5578063e985e9c514610512578063f242432a1461054f578063fad2b614146105785761013f565b8063766e4ed61461037b57806385ba0592146103b8578063a22cb465146103e3578063a5a9a2b31461040c578063be040fb01461044c578063be9a6555146104635761013f565b806349fa3a2e1161010857806349fa3a2e1461024f5780634e1273f41461026d57806350b44712146102aa5780635b5a2846146102ea5780636cbc2ded1461032757806376570b131461033e5761013f565b8062fdd58e1461014457806301ffc9a7146101815780630e89341c146101be5780632eb2c2d6146101fb57806335c4377b14610224575b600080fd5b34801561015057600080fd5b5061016b600480360381019061016691906127d1565b6105b5565b6040516101789190612edd565b60405180910390f35b34801561018d57600080fd5b506101a860048036038101906101a39190612879565b61067e565b6040516101b59190612d40565b60405180910390f35b3480156101ca57600080fd5b506101e560048036038101906101e091906128cb565b610760565b6040516101f29190612d5b565b60405180910390f35b34801561020757600080fd5b50610222600480360381019061021d9190612647565b6107f4565b005b34801561023057600080fd5b50610239610bea565b6040516102469190612edd565b60405180910390f35b610257610bfc565b6040516102649190612edd565b60405180910390f35b34801561027957600080fd5b50610294600480360381019061028f919061280d565b610c1e565b6040516102a19190612ce7565b60405180910390f35b3480156102b657600080fd5b506102d160048036038101906102cc91906128cb565b610dcf565b6040516102e19493929190612ca2565b60405180910390f35b3480156102f657600080fd5b50610311600480360381019061030c91906128cb565b610e3c565b60405161031e9190612edd565b60405180910390f35b34801561033357600080fd5b5061033c610e60565b005b34801561034a57600080fd5b50610365600480360381019061036091906128f4565b611353565b6040516103729190612f65565b60405180910390f35b34801561038757600080fd5b506103a2600480360381019061039d91906128cb565b61135d565b6040516103af9190612edd565b60405180910390f35b3480156103c457600080fd5b506103cd611367565b6040516103da9190612edd565b60405180910390f35b3480156103ef57600080fd5b5061040a60048036038101906104059190612795565b61136c565b005b34801561041857600080fd5b50610433600480360381019061042e91906128cb565b6114ed565b6040516104439493929190612ca2565b60405180910390f35b34801561045857600080fd5b5061046161155a565b005b34801561046f57600080fd5b5061047861177a565b6040516104859190612edd565b60405180910390f35b6104a860048036038101906104a391906128f4565b611780565b005b3480156104b657600080fd5b506104bf6118e7565b6040516104cc9190612edd565b60405180910390f35b3480156104e157600080fd5b506104fc60048036038101906104f791906128cb565b6118ed565b6040516105099190612edd565b60405180910390f35b34801561051e57600080fd5b506105396004803603810190610534919061260b565b611904565b6040516105469190612d40565b60405180910390f35b34801561055b57600080fd5b5061057660048036038101906105719190612706565b611998565b005b34801561058457600080fd5b5061059f600480360381019061059a91906128cb565b611cb0565b6040516105ac9190612edd565b60405180910390f35b60008073ffffffffffffffffffffffffffffffffffffffff168373ffffffffffffffffffffffffffffffffffffffff161415610626576040517f08c379a000000000000000000000000000000000000000000000000000000000815260040161061d90612dbd565b60405180910390fd5b60008083815260200190815260200160002060008473ffffffffffffffffffffffffffffffffffffffff1673ffffffffffffffffffffffffffffffffffffffff16815260200190815260200160002054905092915050565b60007fd9b67a26000000000000000000000000000000000000000000000000000000007bffffffffffffffffffffffffffffffffffffffffffffffffffffffff1916827bffffffffffffffffffffffffffffffffffffffffffffffffffffffff1916148061074957507f0e89341c000000000000000000000000000000000000000000000000000000007bffffffffffffffffffffffffffffffffffffffffffffffffffffffff1916827bffffffffffffffffffffffffffffffffffffffffffffffffffffffff1916145b80610759575061075882611ccb565b5b9050919050565b60606002805461076f90613289565b80601f016020809104026020016040519081016040528092919081815260200182805461079b90613289565b80156107e85780601f106107bd576101008083540402835291602001916107e8565b820191906000526020600020905b8154815290600101906020018083116107cb57829003601f168201915b50505050509050919050565b8151835114610838576040517f08c379a000000000000000000000000000000000000000000000000000000000815260040161082f90612e9d565b60405180910390fd5b600073ffffffffffffffffffffffffffffffffffffffff168473ffffffffffffffffffffffffffffffffffffffff1614156108a8576040517f08c379a000000000000000000000000000000000000000000000000000000000815260040161089f90612dfd565b60405180910390fd5b6108b0611d35565b73ffffffffffffffffffffffffffffffffffffffff168573ffffffffffffffffffffffffffffffffffffffff1614806108f657506108f5856108f0611d35565b611904565b5b610935576040517f08c379a000000000000000000000000000000000000000000000000000000000815260040161092c90612e1d565b60405180910390fd5b600061093f611d35565b905061094f818787878787611d3d565b60005b8451811015610b55576000858281518110610996577f4e487b7100000000000000000000000000000000000000000000000000000000600052603260045260246000fd5b6020026020010151905060008583815181106109db577f4e487b7100000000000000000000000000000000000000000000000000000000600052603260045260246000fd5b60200260200101519050600080600084815260200190815260200160002060008b73ffffffffffffffffffffffffffffffffffffffff1673ffffffffffffffffffffffffffffffffffffffff16815260200190815260200160002054905081811015610a7c576040517f08c379a0000000000000000000000000000000000000000000000000000000008152600401610a7390612e3d565b60405180910390fd5b8181610a889190613180565b60008085815260200190815260200160002060008c73ffffffffffffffffffffffffffffffffffffffff1673ffffffffffffffffffffffffffffffffffffffff168152602001908152602001600020819055508160008085815260200190815260200160002060008b73ffffffffffffffffffffffffffffffffffffffff1673ffffffffffffffffffffffffffffffffffffffff1681526020019081526020016000206000828254610b3a919061309f565b9250508190555050505080610b4e906132ec565b9050610952565b508473ffffffffffffffffffffffffffffffffffffffff168673ffffffffffffffffffffffffffffffffffffffff168273ffffffffffffffffffffffffffffffffffffffff167f4a39dc06d4c0dbc64b70af90fd698a233a518aa5d07e595d983b8c0526c8f7fb8787604051610bcc929190612d09565b60405180910390a4610be2818787878787611d45565b505050505050565b600d6104b0610bf991906130f5565b81565b6000346020600060035481526020019081526020016000208190555034905090565b60608151835114610c64576040517f08c379a0000000000000000000000000000000000000000000000000000000008152600401610c5b90612e7d565b60405180910390fd5b6000835167ffffffffffffffff811115610ca7577f4e487b7100000000000000000000000000000000000000000000000000000000600052604160045260246000fd5b604051908082528060200260200182016040528015610cd55781602001602082028036833780820191505090505b50905060005b8451811015610dc457610d6e858281518110610d20577f4e487b7100000000000000000000000000000000000000000000000000000000600052603260045260246000fd5b6020026020010151858381518110610d61577f4e487b7100000000000000000000000000000000000000000000000000000000600052603260045260246000fd5b60200260200101516105b5565b828281518110610da7577f4e487b7100000000000000000000000000000000000000000000000000000000600052603260045260246000fd5b60200260200101818152505080610dbd906132ec565b9050610cdb565b508091505092915050565b60058181548110610ddf57600080fd5b90600052602060002090600302016000915090508060000160009054906101000a900473ffffffffffffffffffffffffffffffffffffffff16908060000160149054906101000a900460ff16908060010154908060020154905084565b60008160206000600354815260200190815260200160002081905550819050919050565b6000602060006003548152602001908152602001600020541415610e9a57610e996000600143610e909190613180565b4060001c611f2c565b5b6000601960ff1660206000600354815260200190815260200160002054610ec1919061335f565b90507f34fa627446f032cedc60a5521c4a8fbdd28f3ce106d8c6f6c17322ada873cebb60035482604051610ef6929190612f21565b60405180910390a160008060078360ff1660198110610f3e577f4e487b7100000000000000000000000000000000000000000000000000000000600052603260045260246000fd5b0154905060005b601960ff168160ff161015611005578360ff168160ff1614610fae5760078160ff1660198110610f9e577f4e487b7100000000000000000000000000000000000000000000000000000000600052603260045260246000fd5b015483610fab919061309f565b92505b600060078260ff1660198110610fed577f4e487b7100000000000000000000000000000000000000000000000000000000600052603260045260246000fd5b01819055508080610ffd90613335565b915050610f45565b506000811180156110165750600082115b1561127f5760005b60058054905081101561127d57600060058281548110611067577f4e487b7100000000000000000000000000000000000000000000000000000000600052603260045260246000fd5b90600052602060002090600302016040518060800160405290816000820160009054906101000a900473ffffffffffffffffffffffffffffffffffffffff1673ffffffffffffffffffffffffffffffffffffffff1673ffffffffffffffffffffffffffffffffffffffff1681526020016000820160149054906101000a900460ff1660ff1660ff1681526020016001820154815260200160028201548152505090508460ff1660058381548110611147577f4e487b7100000000000000000000000000000000000000000000000000000000600052603260045260246000fd5b906000526020600020906003020160000160149054906101000a900460ff1660ff1614611174575061126a565b60006123288583604001516111899190613126565b6111939190613126565b90506000612710856111a59190613126565b905080826111b391906130f5565b836060018181525050600683908060018154018082558091505060019003906000526020600020906003020160009091909190915060008201518160000160006101000a81548173ffffffffffffffffffffffffffffffffffffffff021916908373ffffffffffffffffffffffffffffffffffffffff16021790555060208201518160000160146101000a81548160ff021916908360ff160217905550604082015181600101556060820151816002015550505050505b8080611275906132ec565b91505061101e565b505b5b6000600580549050111561132f5760058054806112c6577f4e487b7100000000000000000000000000000000000000000000000000000000600052603160045260246000fd5b6001900381819060005260206000209060030201600080820160006101000a81549073ffffffffffffffffffffffffffffffffffffffff02191690556000820160146101000a81549060ff02191690556001820160009055600282016000905550509055611280565b4360048190555060036000815480929190611349906132ec565b9190505550505050565b6000819050919050565b6000819050919050565b600d81565b8173ffffffffffffffffffffffffffffffffffffffff1661138b611d35565b73ffffffffffffffffffffffffffffffffffffffff1614156113e2576040517f08c379a00000000000000000000000000000000000000000000000000000000081526004016113d990612e5d565b60405180910390fd5b80600160006113ef611d35565b73ffffffffffffffffffffffffffffffffffffffff1673ffffffffffffffffffffffffffffffffffffffff16815260200190815260200160002060008473ffffffffffffffffffffffffffffffffffffffff1673ffffffffffffffffffffffffffffffffffffffff16815260200190815260200160002060006101000a81548160ff0219169083151502179055508173ffffffffffffffffffffffffffffffffffffffff1661149c611d35565b73ffffffffffffffffffffffffffffffffffffffff167f17307eab39ab6107e8899845ad3d59bd9653f200f220920489ca2b5937696c31836040516114e19190612d40565b60405180910390a35050565b600681815481106114fd57600080fd5b90600052602060002090600302016000915090508060000160009054906101000a900473ffffffffffffffffffffffffffffffffffffffff16908060000160149054906101000a900460ff16908060010154908060020154905084565b60005b6006805490508110156116c7576000600682815481106115a6577f4e487b7100000000000000000000000000000000000000000000000000000000600052603260045260246000fd5b90600052602060002090600302016040518060800160405290816000820160009054906101000a900473ffffffffffffffffffffffffffffffffffffffff1673ffffffffffffffffffffffffffffffffffffffff1673ffffffffffffffffffffffffffffffffffffffff1681526020016000820160149054906101000a900460ff1660ff1660ff1681526020016001820154815260200160028201548152505090506116558160200151611f4a565b806000015173ffffffffffffffffffffffffffffffffffffffff166108fc82604001518360600151611687919061309f565b9081150290604051600060405180830381858888f193505050501580156116b2573d6000803e3d6000fd5b505080806116bf906132ec565b91505061155d565b505b6000600680549050111561177857600680548061170f577f4e487b7100000000000000000000000000000000000000000000000000000000600052603160045260246000fd5b6001900381819060005260206000209060030201600080820160006101000a81549073ffffffffffffffffffffffffffffffffffffffff02191690556000820160146101000a81549060ff021916905560018201600090556002820160009055505090556116c9565b565b60045481565b600d6104b061178f91906130f5565b60045461179c919061309f565b43106117ab576117aa610e60565b5b600560405180608001604052803373ffffffffffffffffffffffffffffffffffffffff1681526020018360ff1681526020013481526020016000815250908060018154018082558091505060019003906000526020600020906003020160009091909190915060008201518160000160006101000a81548173ffffffffffffffffffffffffffffffffffffffff021916908373ffffffffffffffffffffffffffffffffffffffff16021790555060208201518160000160146101000a81548160ff021916908360ff160217905550604082015181600101556060820151816002015550503460078260ff16601981106118cd577f4e487b7100000000000000000000000000000000000000000000000000000000600052603260045260246000fd5b0160008282546118dd919061309f565b9250508190555050565b6104b081565b602080528060005260406000206000915090505481565b6000600160008473ffffffffffffffffffffffffffffffffffffffff1673ffffffffffffffffffffffffffffffffffffffff16815260200190815260200160002060008373ffffffffffffffffffffffffffffffffffffffff1673ffffffffffffffffffffffffffffffffffffffff16815260200190815260200160002060009054906101000a900460ff16905092915050565b600073ffffffffffffffffffffffffffffffffffffffff168473ffffffffffffffffffffffffffffffffffffffff161415611a08576040517f08c379a00000000000000000000000000000000000000000000000000000000081526004016119ff90612dfd565b60405180910390fd5b611a10611d35565b73ffffffffffffffffffffffffffffffffffffffff168573ffffffffffffffffffffffffffffffffffffffff161480611a565750611a5585611a50611d35565b611904565b5b611a95576040517f08c379a0000000000000000000000000000000000000000000000000000000008152600401611a8c90612ddd565b60405180910390fd5b6000611a9f611d35565b9050611abf818787611ab088611fa3565b611ab988611fa3565b87611d3d565b600080600086815260200190815260200160002060008873ffffffffffffffffffffffffffffffffffffffff1673ffffffffffffffffffffffffffffffffffffffff16815260200190815260200160002054905083811015611b56576040517f08c379a0000000000000000000000000000000000000000000000000000000008152600401611b4d90612e3d565b60405180910390fd5b8381611b629190613180565b60008087815260200190815260200160002060008973ffffffffffffffffffffffffffffffffffffffff1673ffffffffffffffffffffffffffffffffffffffff168152602001908152602001600020819055508360008087815260200190815260200160002060008873ffffffffffffffffffffffffffffffffffffffff1673ffffffffffffffffffffffffffffffffffffffff1681526020019081526020016000206000828254611c14919061309f565b925050819055508573ffffffffffffffffffffffffffffffffffffffff168773ffffffffffffffffffffffffffffffffffffffff168373ffffffffffffffffffffffffffffffffffffffff167fc3d58168c5ae7397731d063d5bbf3d657854427343f4c083240f7aacaa2d0f628888604051611c91929190612ef8565b60405180910390a4611ca7828888888888612069565b50505050505050565b60078160198110611cc057600080fd5b016000915090505481565b60007f01ffc9a7000000000000000000000000000000000000000000000000000000007bffffffffffffffffffffffffffffffffffffffffffffffffffffffff1916827bffffffffffffffffffffffffffffffffffffffffffffffffffffffff1916149050919050565b600033905090565b505050505050565b611d648473ffffffffffffffffffffffffffffffffffffffff16612250565b15611f24578373ffffffffffffffffffffffffffffffffffffffff1663bc197c8187878686866040518663ffffffff1660e01b8152600401611daa959493929190612be0565b602060405180830381600087803b158015611dc457600080fd5b505af1925050508015611df557506040513d601f19601f82011682018060405250810190611df291906128a2565b60015b611e9b57611e0161344c565b806308c379a01415611e5e5750611e166137f1565b80611e215750611e60565b806040517f08c379a0000000000000000000000000000000000000000000000000000000008152600401611e559190612d5b565b60405180910390fd5b505b6040517f08c379a0000000000000000000000000000000000000000000000000000000008152600401611e9290612d7d565b60405180910390fd5b63bc197c8160e01b7bffffffffffffffffffffffffffffffffffffffffffffffffffffffff1916817bffffffffffffffffffffffffffffffffffffffffffffffffffffffff191614611f22576040517f08c379a0000000000000000000000000000000000000000000000000000000008152600401611f1990612d9d565b60405180910390fd5b505b505050505050565b80602060006003548152602001908152602001600020819055505050565b611f69338260ff16600160405180602001604052806000815250612263565b7f911f0ebcd47577fe349144adf06ad6bacac6f1886a104904795d7404d9acabe981604051611f989190612f4a565b60405180910390a150565b60606000600167ffffffffffffffff811115611fe8577f4e487b7100000000000000000000000000000000000000000000000000000000600052604160045260246000fd5b6040519080825280602002602001820160405280156120165781602001602082028036833780820191505090505b5090508281600081518110612054577f4e487b7100000000000000000000000000000000000000000000000000000000600052603260045260246000fd5b60200260200101818152505080915050919050565b6120888473ffffffffffffffffffffffffffffffffffffffff16612250565b15612248578373ffffffffffffffffffffffffffffffffffffffff1663f23a6e6187878686866040518663ffffffff1660e01b81526004016120ce959493929190612c48565b602060405180830381600087803b1580156120e857600080fd5b505af192505050801561211957506040513d601f19601f8201168201806040525081019061211691906128a2565b60015b6121bf5761212561344c565b806308c379a01415612182575061213a6137f1565b806121455750612184565b806040517f08c379a00000000000000000000000000000000000000000000000000000000081526004016121799190612d5b565b60405180910390fd5b505b6040517f08c379a00000000000000000000000000000000000000000000000000000000081526004016121b690612d7d565b60405180910390fd5b63f23a6e6160e01b7bffffffffffffffffffffffffffffffffffffffffffffffffffffffff1916817bffffffffffffffffffffffffffffffffffffffffffffffffffffffff191614612246576040517f08c379a000000000000000000000000000000000000000000000000000000000815260040161223d90612d9d565b60405180910390fd5b505b505050505050565b600080823b905060008111915050919050565b600073ffffffffffffffffffffffffffffffffffffffff168473ffffffffffffffffffffffffffffffffffffffff1614156122d3576040517f08c379a00000000000000000000000000000000000000000000000000000000081526004016122ca90612ebd565b60405180910390fd5b60006122dd611d35565b90506122fe816000876122ef88611fa3565b6122f888611fa3565b87611d3d565b8260008086815260200190815260200160002060008773ffffffffffffffffffffffffffffffffffffffff1673ffffffffffffffffffffffffffffffffffffffff168152602001908152602001600020600082825461235d919061309f565b925050819055508473ffffffffffffffffffffffffffffffffffffffff16600073ffffffffffffffffffffffffffffffffffffffff168273ffffffffffffffffffffffffffffffffffffffff167fc3d58168c5ae7397731d063d5bbf3d657854427343f4c083240f7aacaa2d0f6287876040516123db929190612ef8565b60405180910390a46123f281600087878787612069565b5050505050565b600061240c61240784612fa5565b612f80565b9050808382526020820190508285602086028201111561242b57600080fd5b60005b8581101561245b5781612441888261250f565b84526020840193506020830192505060018101905061242e565b5050509392505050565b600061247861247384612fd1565b612f80565b9050808382526020820190508285602086028201111561249757600080fd5b60005b858110156124c757816124ad88826125e1565b84526020840193506020830192505060018101905061249a565b5050509392505050565b60006124e46124df84612ffd565b612f80565b9050828152602081018484840111156124fc57600080fd5b612507848285613247565b509392505050565b60008135905061251e81613887565b92915050565b600082601f83011261253557600080fd5b81356125458482602086016123f9565b91505092915050565b600082601f83011261255f57600080fd5b813561256f848260208601612465565b91505092915050565b6000813590506125878161389e565b92915050565b60008135905061259c816138b5565b92915050565b6000815190506125b1816138b5565b92915050565b600082601f8301126125c857600080fd5b81356125d88482602086016124d1565b91505092915050565b6000813590506125f0816138cc565b92915050565b600081359050612605816138e3565b92915050565b6000806040838503121561261e57600080fd5b600061262c8582860161250f565b925050602061263d8582860161250f565b9150509250929050565b600080600080600060a0868803121561265f57600080fd5b600061266d8882890161250f565b955050602061267e8882890161250f565b945050604086013567ffffffffffffffff81111561269b57600080fd5b6126a78882890161254e565b935050606086013567ffffffffffffffff8111156126c457600080fd5b6126d08882890161254e565b925050608086013567ffffffffffffffff8111156126ed57600080fd5b6126f9888289016125b7565b9150509295509295909350565b600080600080600060a0868803121561271e57600080fd5b600061272c8882890161250f565b955050602061273d8882890161250f565b945050604061274e888289016125e1565b935050606061275f888289016125e1565b925050608086013567ffffffffffffffff81111561277c57600080fd5b612788888289016125b7565b9150509295509295909350565b600080604083850312156127a857600080fd5b60006127b68582860161250f565b92505060206127c785828601612578565b9150509250929050565b600080604083850312156127e457600080fd5b60006127f28582860161250f565b9250506020612803858286016125e1565b9150509250929050565b6000806040838503121561282057600080fd5b600083013567ffffffffffffffff81111561283a57600080fd5b61284685828601612524565b925050602083013567ffffffffffffffff81111561286357600080fd5b61286f8582860161254e565b9150509250929050565b60006020828403121561288b57600080fd5b60006128998482850161258d565b91505092915050565b6000602082840312156128b457600080fd5b60006128c2848285016125a2565b91505092915050565b6000602082840312156128dd57600080fd5b60006128eb848285016125e1565b91505092915050565b60006020828403121561290657600080fd5b6000612914848285016125f6565b91505092915050565b60006129298383612ba4565b60208301905092915050565b61293e816131b4565b82525050565b600061294f8261303e565b612959818561306c565b93506129648361302e565b8060005b8381101561299557815161297c888261291d565b97506129878361305f565b925050600181019050612968565b5085935050505092915050565b6129ab816131c6565b82525050565b60006129bc82613049565b6129c6818561307d565b93506129d6818560208601613256565b6129df8161346e565b840191505092915050565b60006129f582613054565b6129ff818561308e565b9350612a0f818560208601613256565b612a188161346e565b840191505092915050565b6000612a3060348361308e565b9150612a3b8261348c565b604082019050919050565b6000612a5360288361308e565b9150612a5e826134db565b604082019050919050565b6000612a76602b8361308e565b9150612a818261352a565b604082019050919050565b6000612a9960298361308e565b9150612aa482613579565b604082019050919050565b6000612abc60258361308e565b9150612ac7826135c8565b604082019050919050565b6000612adf60328361308e565b9150612aea82613617565b604082019050919050565b6000612b02602a8361308e565b9150612b0d82613666565b604082019050919050565b6000612b2560298361308e565b9150612b30826136b5565b604082019050919050565b6000612b4860298361308e565b9150612b5382613704565b604082019050919050565b6000612b6b60288361308e565b9150612b7682613753565b604082019050919050565b6000612b8e60218361308e565b9150612b99826137a2565b604082019050919050565b612bad8161321e565b82525050565b612bbc8161321e565b82525050565b612bcb81613235565b82525050565b612bda81613228565b82525050565b600060a082019050612bf56000830188612935565b612c026020830187612935565b8181036040830152612c148186612944565b90508181036060830152612c288185612944565b90508181036080830152612c3c81846129b1565b90509695505050505050565b600060a082019050612c5d6000830188612935565b612c6a6020830187612935565b612c776040830186612bb3565b612c846060830185612bb3565b8181036080830152612c9681846129b1565b90509695505050505050565b6000608082019050612cb76000830187612935565b612cc46020830186612bd1565b612cd16040830185612bb3565b612cde6060830184612bb3565b95945050505050565b60006020820190508181036000830152612d018184612944565b905092915050565b60006040820190508181036000830152612d238185612944565b90508181036020830152612d378184612944565b90509392505050565b6000602082019050612d5560008301846129a2565b92915050565b60006020820190508181036000830152612d7581846129ea565b905092915050565b60006020820190508181036000830152612d9681612a23565b9050919050565b60006020820190508181036000830152612db681612a46565b9050919050565b60006020820190508181036000830152612dd681612a69565b9050919050565b60006020820190508181036000830152612df681612a8c565b9050919050565b60006020820190508181036000830152612e1681612aaf565b9050919050565b60006020820190508181036000830152612e3681612ad2565b9050919050565b60006020820190508181036000830152612e5681612af5565b9050919050565b60006020820190508181036000830152612e7681612b18565b9050919050565b60006020820190508181036000830152612e9681612b3b565b9050919050565b60006020820190508181036000830152612eb681612b5e565b9050919050565b60006020820190508181036000830152612ed681612b81565b9050919050565b6000602082019050612ef26000830184612bb3565b92915050565b6000604082019050612f0d6000830185612bb3565b612f1a6020830184612bb3565b9392505050565b6000604082019050612f366000830185612bb3565b612f436020830184612bc2565b9392505050565b6000602082019050612f5f6000830184612bc2565b92915050565b6000602082019050612f7a6000830184612bd1565b92915050565b6000612f8a612f9b565b9050612f9682826132bb565b919050565b6000604051905090565b600067ffffffffffffffff821115612fc057612fbf61341d565b5b602082029050602081019050919050565b600067ffffffffffffffff821115612fec57612feb61341d565b5b602082029050602081019050919050565b600067ffffffffffffffff8211156130185761301761341d565b5b6130218261346e565b9050602081019050919050565b6000819050602082019050919050565b600081519050919050565b600081519050919050565b600081519050919050565b6000602082019050919050565b600082825260208201905092915050565b600082825260208201905092915050565b600082825260208201905092915050565b60006130aa8261321e565b91506130b58361321e565b9250827fffffffffffffffffffffffffffffffffffffffffffffffffffffffffffffffff038211156130ea576130e9613390565b5b828201905092915050565b60006131008261321e565b915061310b8361321e565b92508261311b5761311a6133bf565b5b828204905092915050565b60006131318261321e565b915061313c8361321e565b9250817fffffffffffffffffffffffffffffffffffffffffffffffffffffffffffffffff048311821515161561317557613174613390565b5b828202905092915050565b600061318b8261321e565b91506131968361321e565b9250828210156131a9576131a8613390565b5b828203905092915050565b60006131bf826131fe565b9050919050565b60008115159050919050565b60007fffffffff0000000000000000000000000000000000000000000000000000000082169050919050565b600073ffffffffffffffffffffffffffffffffffffffff82169050919050565b6000819050919050565b600060ff82169050919050565b600061324082613228565b9050919050565b82818337600083830152505050565b60005b83811015613274578082015181840152602081019050613259565b83811115613283576000848401525b50505050565b600060028204905060018216806132a157607f821691505b602082108114156132b5576132b46133ee565b5b50919050565b6132c48261346e565b810181811067ffffffffffffffff821117156132e3576132e261341d565b5b80604052505050565b60006132f78261321e565b91507fffffffffffffffffffffffffffffffffffffffffffffffffffffffffffffffff82141561332a57613329613390565b5b600182019050919050565b600061334082613228565b915060ff82141561335457613353613390565b5b600182019050919050565b600061336a8261321e565b91506133758361321e565b925082613385576133846133bf565b5b828206905092915050565b7f4e487b7100000000000000000000000000000000000000000000000000000000600052601160045260246000fd5b7f4e487b7100000000000000000000000000000000000000000000000000000000600052601260045260246000fd5b7f4e487b7100000000000000000000000000000000000000000000000000000000600052602260045260246000fd5b7f4e487b7100000000000000000000000000000000000000000000000000000000600052604160045260246000fd5b600060033d111561346b5760046000803e61346860005161347f565b90505b90565b6000601f19601f8301169050919050565b60008160e01c9050919050565b7f455243313135353a207472616e7366657220746f206e6f6e204552433131353560008201527f526563656976657220696d706c656d656e746572000000000000000000000000602082015250565b7f455243313135353a204552433131353552656365697665722072656a6563746560008201527f6420746f6b656e73000000000000000000000000000000000000000000000000602082015250565b7f455243313135353a2062616c616e636520717565727920666f7220746865207a60008201527f65726f2061646472657373000000000000000000000000000000000000000000602082015250565b7f455243313135353a2063616c6c6572206973206e6f74206f776e6572206e6f7260008201527f20617070726f7665640000000000000000000000000000000000000000000000602082015250565b7f455243313135353a207472616e7366657220746f20746865207a65726f20616460008201527f6472657373000000000000000000000000000000000000000000000000000000602082015250565b7f455243313135353a207472616e736665722063616c6c6572206973206e6f742060008201527f6f776e6572206e6f7220617070726f7665640000000000000000000000000000602082015250565b7f455243313135353a20696e73756666696369656e742062616c616e636520666f60008201527f72207472616e7366657200000000000000000000000000000000000000000000602082015250565b7f455243313135353a2073657474696e6720617070726f76616c2073746174757360008201527f20666f722073656c660000000000000000000000000000000000000000000000602082015250565b7f455243313135353a206163636f756e747320616e6420696473206c656e67746860008201527f206d69736d617463680000000000000000000000000000000000000000000000602082015250565b7f455243313135353a2069647320616e6420616d6f756e7473206c656e6774682060008201527f6d69736d61746368000000000000000000000000000000000000000000000000602082015250565b7f455243313135353a206d696e7420746f20746865207a65726f2061646472657360008201527f7300000000000000000000000000000000000000000000000000000000000000602082015250565b600060443d101561380157613884565b613809612f9b565b60043d036004823e80513d602482011167ffffffffffffffff82111715613831575050613884565b808201805167ffffffffffffffff81111561384f5750505050613884565b80602083010160043d03850181111561386c575050505050613884565b61387b826020018501866132bb565b82955050505050505b90565b613890816131b4565b811461389b57600080fd5b50565b6138a7816131c6565b81146138b257600080fd5b50565b6138be816131d2565b81146138c957600080fd5b50565b6138d58161321e565b81146138e057600080fd5b50565b6138ec81613228565b81146138f757600080fd5b5056fea2646970667358221220ecc1009918b0e409896da19b930abe2085155bc686d9feeca731c560d23e6e3b64736f6c6343000802003368747470733a2f2f626963686f2d6e66742e7765622e6170702f626963686f2f7b69647d2e6a736f6e",
  "devdoc": {
    "kind": "dev",
    "methods": {
      "balanceOf(address,uint256)": {
        "details": "See {IERC1155-balanceOf}. Requirements: - `account` cannot be the zero address."
      },
      "balanceOfBatch(address[],uint256[])": {
        "details": "See {IERC1155-balanceOfBatch}. Requirements: - `accounts` and `ids` must have the same length."
      },
      "isApprovedForAll(address,address)": {
        "details": "See {IERC1155-isApprovedForAll}."
      },
      "safeBatchTransferFrom(address,address,uint256[],uint256[],bytes)": {
        "details": "See {IERC1155-safeBatchTransferFrom}."
      },
      "safeTransferFrom(address,address,uint256,uint256,bytes)": {
        "details": "See {IERC1155-safeTransferFrom}."
      },
      "setApprovalForAll(address,bool)": {
        "details": "See {IERC1155-setApprovalForAll}."
      },
      "supportsInterface(bytes4)": {
        "details": "See {IERC165-supportsInterface}."
      },
      "uri(uint256)": {
        "details": "See {IERC1155MetadataURI-uri}. This implementation returns the same URI for *all* token types. It relies on the token type ID substitution mechanism https://eips.ethereum.org/EIPS/eip-1155#metadata[defined in the EIP]. Clients calling this function must replace the `\\{id\\}` substring with the actual token type ID."
      }
    },
    "version": 1
  },
  "userdoc": {
    "kind": "user",
    "methods": {},
    "version": 1
  },
  "storageLayout": {
    "storage": [
      {
        "astId": 25,
        "contract": "contracts/Bicho.sol:Bicho",
        "label": "_balances",
        "offset": 0,
        "slot": "0",
        "type": "t_mapping(t_uint256,t_mapping(t_address,t_uint256))"
      },
      {
        "astId": 31,
        "contract": "contracts/Bicho.sol:Bicho",
        "label": "_operatorApprovals",
        "offset": 0,
        "slot": "1",
        "type": "t_mapping(t_address,t_mapping(t_address,t_bool))"
      },
      {
        "astId": 33,
        "contract": "contracts/Bicho.sol:Bicho",
        "label": "_uri",
        "offset": 0,
        "slot": "2",
        "type": "t_string_storage"
      },
      {
        "astId": 1598,
        "contract": "contracts/Bicho.sol:Bicho",
        "label": "currentRound",
        "offset": 0,
        "slot": "3",
        "type": "t_uint256"
      },
      {
        "astId": 1600,
        "contract": "contracts/Bicho.sol:Bicho",
        "label": "start",
        "offset": 0,
        "slot": "4",
        "type": "t_uint256"
      },
      {
        "astId": 1604,
        "contract": "contracts/Bicho.sol:Bicho",
        "label": "tickets",
        "offset": 0,
        "slot": "5",
        "type": "t_array(t_struct(Ticket)1581_storage)dyn_storage"
      },
      {
        "astId": 1608,
        "contract": "contracts/Bicho.sol:Bicho",
        "label": "redeemList",
        "offset": 0,
        "slot": "6",
        "type": "t_array(t_struct(Ticket)1581_storage)dyn_storage"
      },
      {
        "astId": 1612,
        "contract": "contracts/Bicho.sol:Bicho",
        "label": "sumsByNumber",
        "offset": 0,
        "slot": "7",
        "type": "t_array(t_uint256)25_storage"
      },
      {
        "astId": 1616,
        "contract": "contracts/Bicho.sol:Bicho",
        "label": "luckyNumbers",
        "offset": 0,
        "slot": "32",
        "type": "t_mapping(t_uint256,t_uint256)"
      }
    ],
    "types": {
      "t_address": {
        "encoding": "inplace",
        "label": "address",
        "numberOfBytes": "20"
      },
      "t_array(t_struct(Ticket)1581_storage)dyn_storage": {
        "base": "t_struct(Ticket)1581_storage",
        "encoding": "dynamic_array",
        "label": "struct Bicho.Ticket[]",
        "numberOfBytes": "32"
      },
      "t_array(t_uint256)25_storage": {
        "base": "t_uint256",
        "encoding": "inplace",
        "label": "uint256[25]",
        "numberOfBytes": "800"
      },
      "t_bool": {
        "encoding": "inplace",
        "label": "bool",
        "numberOfBytes": "1"
      },
      "t_mapping(t_address,t_bool)": {
        "encoding": "mapping",
        "key": "t_address",
        "label": "mapping(address => bool)",
        "numberOfBytes": "32",
        "value": "t_bool"
      },
      "t_mapping(t_address,t_mapping(t_address,t_bool))": {
        "encoding": "mapping",
        "key": "t_address",
        "label": "mapping(address => mapping(address => bool))",
        "numberOfBytes": "32",
        "value": "t_mapping(t_address,t_bool)"
      },
      "t_mapping(t_address,t_uint256)": {
        "encoding": "mapping",
        "key": "t_address",
        "label": "mapping(address => uint256)",
        "numberOfBytes": "32",
        "value": "t_uint256"
      },
      "t_mapping(t_uint256,t_mapping(t_address,t_uint256))": {
        "encoding": "mapping",
        "key": "t_uint256",
        "label": "mapping(uint256 => mapping(address => uint256))",
        "numberOfBytes": "32",
        "value": "t_mapping(t_address,t_uint256)"
      },
      "t_mapping(t_uint256,t_uint256)": {
        "encoding": "mapping",
        "key": "t_uint256",
        "label": "mapping(uint256 => uint256)",
        "numberOfBytes": "32",
        "value": "t_uint256"
      },
      "t_string_storage": {
        "encoding": "bytes",
        "label": "string",
        "numberOfBytes": "32"
      },
      "t_struct(Ticket)1581_storage": {
        "encoding": "inplace",
        "label": "struct Bicho.Ticket",
        "members": [
          {
            "astId": 1574,
            "contract": "contracts/Bicho.sol:Bicho",
            "label": "player",
            "offset": 0,
            "slot": "0",
            "type": "t_address"
          },
          {
            "astId": 1576,
            "contract": "contracts/Bicho.sol:Bicho",
            "label": "number",
            "offset": 20,
            "slot": "0",
            "type": "t_uint8"
          },
          {
            "astId": 1578,
            "contract": "contracts/Bicho.sol:Bicho",
            "label": "amount",
            "offset": 0,
            "slot": "1",
            "type": "t_uint256"
          },
          {
            "astId": 1580,
            "contract": "contracts/Bicho.sol:Bicho",
            "label": "wonShare",
            "offset": 0,
            "slot": "2",
            "type": "t_uint256"
          }
        ],
        "numberOfBytes": "96"
      },
      "t_uint256": {
        "encoding": "inplace",
        "label": "uint256",
        "numberOfBytes": "32"
      },
      "t_uint8": {
        "encoding": "inplace",
        "label": "uint8",
        "numberOfBytes": "1"
      }
    }
  }
}